:020000040800F2
:1000000000800120F9400008C1120008C312000856
:10001000C5120008C7120008C9120008000000003D
:10002000000000000000000000000000CB120008EB
:10003000CD12000800000000CF120008D112000805
:100040004941000849410008494100084941000868
:100050004941000849410008494100084941000858
:100060004941000849410008494100084941000848
:100070004941000849410008494100084941000838
:100080004941000849410008494100084941000828
:10009000494100084941000849410008D9120008B7
:1000A0004941000849410008494100084941000808
:1000B00049410008494100084941000849410008F8
:1000C00049410008494100084941000849410008E8
:1000D00049410008494100084941000849410008D8
:1000E00049410008494100084941000849410008C8
:1000F00049410008494100084941000849410008B8
:1001000049410008494100084941000849410008A7
:100110004941000849410008ED1200084941000822
:100120004941000849410008494100084941000887
:100130004941000849410008494100084941000877
:100140004941000849410008494100084941000867
:100150004941000849410008494100084941000857
:100160004941000849410008494100084941000847
:10017000494100084941000800000000000000005B
:08018000494100084941000853
:1001880010B5054C237833B9044B13B10448AFF3C9
:1001980000800123237010BD98010020000000009A
:1001A8000044000808B5034B1BB103490348AFF3EB
:1001B800008008BD000000009C01002000440008E9
:1001C8002DE9F04188B006460D46344B93E803000C
:1001D80006908DF81C104021314801F095FA00284E
:1001E80059D0052001F014F92E4F00224FF4005188
:1001F800384601F090FADFF8B08001240094052316
:1002080004AA06A9404603F0BEF822464FF400515E
:10021800384601F080FA204601F0FAF800224FF43F
:100228000051384601F077FA0094052304AA06A97C
:10023800404603F0A8F89DF813309DF8142043EACF
:100248000223FF228DF80F20AB4200DC1D46002D53
:1002580018DD002408E00123009332190DF10F0185
:10026800114803F090F80134A542F4DC01224FF460
:1002780000510C4801F04FFA00200C4B186008B0F0
:10028800BDE8F08101224FF40051064801F043FA1D
:100298004FF0FF30F3E76FF00100F0E71844000873
:1002A80000100048000C0048D00200201C04002068
:1002B800002393420FDA00B510F803E011F803C0E9
:1002C800E64505D101339342F6DB00205DF804FBD7
:1002D8004FF0FF30FAE700207047000070B586B095
:1002E80006460D46194B93E8030004908DF8141048
:1002F80010E00123AAB23146154802F043FF00245A
:1003080001224FF40051134801F005FA124B002264
:100318001A60C4B100224FF400510E4801F0FBF9F5
:1003280001230093052302AA04A9094803F02BF826
:100338009DF80A209DF8093043EA0223AB42D8DA37
:100348004FF0FF34DCE706B070BD00BF2044000862
:10035800D0020020000C00481C04002070B50A20C0
:1003680003F0F0FE0446264D286820602B7923719F
:100378000023A371E3712372637263710623EB7424
:100388001323EB72172003F0DDFE064605F1080380
:1003980007CB30607160B2601B7833732268636882
:1003A800C6F80D20C6F811302389A6F81530172194
:1003B8003046FFF793FF072003F0C4FE0546114BB4
:1003C8001B68002BFBD007212846FFF7F9FE50B920
:1003D80007220D492846FFF76BFF20B90B4A1388FF
:1003E80043F080031380284603F0B4FE304603F040
:1003F800B1FE204603F0AEFE0A2001F009F870BDF8
:10040800000000201C04002018000020B401002077
:1004180008B57F210648FFF7D3FE28B9032205490E
:100428000348FFF745FF00B108BDFFF797FFFBE75B
:10043800B801002020000020F8B517461E46FFF737
:100448004DFF069D06EB4505284603F07BFE114B44
:10045800C3F80401002440210F4801F055F920B9E0
:10046800013447F230508442F5DD2946094BD3F870
:100478000401FFF7A5FE044638B932463946054B54
:10048800D3F80401FFF714FF04460A2000F0C0FF68
:100498002046F8BDB40100200010004830B583B0F4
:1004A8000D46164CD0F800E0D0F804C08168C36847
:1004B800C4F829E0C4F82DC0C4F83110C4F83530A8
:1004C80084F83A2001230093072304F13C02172102
:1004D80004F12400FFF7B0FF40B9094BD3F8042119
:1004E800D2792A70D3F804311B7A6B70044BD3F895
:1004F800040103F02FFE03B030BD00BF0000002050
:10050800B401002070B582B00D461B4C0668D0F8C7
:1005180004E0D0F808C0C168C4F84B60C4F84FE0E4
:10052800C4F853C0C4F85710117884F848105278AA
:1005380084F8492084F85B309DF8183084F85D30E1
:1005480001230093072304F164021E2104F14400EF
:10055800FFF772FF40B9094BD3F80421D2792A700A
:10056800D3F804311B7A6B70044BD3F8040103F001
:10057800F1FD02B070BD00BF00000020B4010020F2
:10058800F0B583B01E46DBB29D1D1C4C84F86F503D
:10059800057884F87050407884F87100087884F8F9
:1005A8007200497884F8731084F8742084F87530E0
:1005B80006F10A07384603F0C5FD054604F16C0349
:1005C80003CB286069601B882B813246089905F1A6
:1005D8000A0003F0B9FE00230093072304F1640224
:1005E80039462846FFF728FF284603F0B3FD044B99
:1005F800D3F8040103F0AEFD03B0F0BD0000002005
:10060800B401002070B582B0062003F09BFD644B56
:10061800C3F80401634B1B68002BFBD00621FFF7CE
:10062800CFFD60B9062260495D4BD3F80401FFF79E
:100638003FFE20B95A4A138843F0010313800A2069
:1006480000F0E6FE564BD3F8040103F083FD57484B
:1006580000230093072300F1840204218C30FFF764
:10066800EBFE20B94E4A138843F0020313804C4B2B
:10067800D3F8040103F06EFD4C48032300930723CD
:1006880000F1900219469830FFF7D6FE90B9444B16
:100698001A8842F004021A80D3F80421B2F807102D
:1006A800A3F80811B2F80910A3F80C11B2F80B203E
:1006B800A3F810213A4CD4F8040103F04BFD3B4D4C
:1006C80000950523002204F5867104F58470FFF770
:1006D80057FF238843F008032380D4F8040103F06C
:1006E80039FD00230093072305F1A002102105F12D
:1006F800A800FFF7A1FE18B9238843F01003238050
:10070800274BD3F8040103F025FD28480023009364
:10071800072300F1B8020621C030FFF78DFE20B98B
:100728001F4A138843F0200313801D4BD3F804019C
:1007380003F010FD1D4800230093072300F1C802B1
:100748002421D030FFF778FE20B9154A138843F0EA
:1007580040031380124CD4F8040103F0FBFCFFF7AC
:10076800FDFD04F58A76114D0622314605F1F400A7
:10077800FFF794FE04F58C7412230093112332467C
:10078800214605F58270FFF7BDFE05F58A750095CF
:100798001123002221463046FFF7F2FE02B070BD59
:1007A800B40100201C0400207C0000200000002070
:1007B8002DE9F04784B00746884614461E46BDF921
:1007C80030A003F10709484603F0BCFC0546324651
:1007D800214603F0B9FDBAF1000F67DB2B238DF832
:1007E8000830554B83FB0A234FEAEA72C2EBA31287
:1007F800D2B28DF80920514C02FB04F40AEB040331
:100808004F4981FB0301DB17C3EB6113DBB28DF8A2
:100818000A306FF0630101FB03A10C44494981FBD5
:100828000401E417C4EBA104E4B28DF80B40C4EB57
:100838004411C4EB810103EB830CC3EBCC0C4FEAEE
:100848008C0C0CEB410CD44402EB4201C90051FA68
:100858008CFC5FFA8CFC8DF80CC07AB330328DF8C2
:10086800092030338DF80A3030348DF80B400CF104
:10087800300C8DF80CC022238DF80D307D238DF8B7
:100888000E300024C4F1070202A9A81903F05CFD88
:100898000095A9EB0403002241463846FFF770FE95
:1008A800284603F057FC04B0BDE8F0872D238DF8E7
:1008B8000830CAF1000A0FFA8AFA92E73BBB94B9EA
:1008C8000CF1300C8DF809C022238DF80A307D23F5
:1008D8008DF80B3020238DF80C308DF80D308DF805
:1008E8000E300324CEE730348DF809400CF1300C7B
:1008F8008DF80AC022238DF80B307D238DF80C303B
:1009080020238DF80D308DF80E300224BAE73033ED
:100918008DF8093030348DF80A400CF1300C8DF820
:100928000BC022238DF80C307D238DF80D30202349
:100938008DF80E300124A5E7D34D621018FCFFFF97
:100948001F85EB51676666662DE9F0418AB0002481
:10095800059406940794089409943B4BDA6C42F08A
:100968001002DA64DA6C02F010020092009ADA6C73
:1009780042F00202DA64DA6C02F002020192019A91
:10098800DA6C42F00802DA64DA6C02F008020292C9
:10099800029ADA6C42F00402DA64DA6C02F00402B9
:1009A8000392039ADA6C42F00102DA64DB6C03F01A
:1009B80001030493049BDFF8A08001224FF4005147
:1009C800404600F0A8FE214E22464021304600F065
:1009D800A2FE01224FF480714FF0904000F09BFE80
:1009E800402705971A4B0693079405A9194800F064
:1009F8009FFD4FF4005305930125069507940323A3
:100A0800089305A9404600F093FD059706950794BD
:100A1800089405A9304600F08BFD4FF480730593C8
:100A280006950794089405A94FF0904000F080FDC2
:100A380022462146172000F053FD172000F060FDE4
:100A48000AB0BDE8F08100BF00100240000800486D
:100A58000000111000100048000C004872B6FEE7B4
:100A680008B50F480F4B03604FF4827343600023AF
:100A780083604FF4E062C260036143614FF4007227
:100A88008261C3610362436283620722C2620363B5
:100A98000823436302F007FB00B908BDFFF7DEFF38
:100AA800D0020020003C004008B51248124B4366B3
:100AB800124B83660023C36601220267436783677C
:100AC800C367C0F88030C0F88430643000F077FF26
:100AD80050B900210A4801F04DF938B900210848F9
:100AE80001F076F920B908BDFFF7B8FFFFF7B6FFA8
:100AF800FFF7B4FFD0020020005800400E09002084
:100B08003403002000B585B00023019302930393BA
:100B18001148124AC0F8B02040F69F72C0F8B420BD
:100B2800C0F8B8304FF47A72C0F8BC20C0F8C830AA
:100B3800B03003F047F850B900230193039301A99B
:100B4800074803F03DFA20B905B05DF804FBFFF74C
:100B580085FFFFF783FF00BFD00200200010004090
:100B68008003002010B596B00024139414941594B3
:100B78000C940D940E940F941094119412942C22AA
:100B8800214601A803F09CFB2448254BC0F8FC3003
:100B98006423C0F80031C0F804414FF4FA73C0F878
:100BA8000831C0F80C41C0F81041C0F81441FC30BD
:100BB80003F038F8002829D100231393159313A9BB
:100BC800184803F0FDF918BB60230C9300220D921E
:100BD8000E920F921092119212920CA9114803F0E2
:100BE80097F8B8B9002301930293039304930593EC
:100BF8004FF4005206920B9301A90A4803F02CFA0D
:100C080050B9084800F02EFB16B010BDFFF726FFBC
:100C1800FFF724FFFFF722FFFFF720FFD002002095
:100C280000400140CC03002000B5B9B044220021A7
:100C380027A803F045FB00212291239124912591B7
:100C480026918822684603F03BFB10232793012353
:100C58002D9370232F9327A801F0D8F9D0B90F232B
:100C680022930021239124912591269122A801F015
:100C7800E3FC88B98023009300231593684601F0AC
:100C8800E7FE58B94FF4007001F0D6F840B939B012
:100C98005DF804FBFFF7E2FEFFF7E0FEFFF7DEFE7C
:100CA800FFF7DCFE10B582B000F090FBFFF7BCFF49
:100CB800FFF74AFEFFF7D4FEFFF7F6FEFFF722FF25
:100CC800FFF750FF00224FF480714FF0904000F082
:100CD80022FD0A2000F09CFB01224FF480714FF0A6
:100CE800904000F018FDFFF78DFC012240212148BB
:100CF80000F011FD0A2000F08BFB00F0BDF900F0B8
:100D080045F81D4C04F1B00002F0E0FD00F052F887
:100D180000F0C6F900F0D8F9002104F1FC0003F056
:100D28009BF8002404E0144BD3F848314BB930BF8A
:100D38004021124800F0E8FC0028F4D0FFF768FBD7
:100D4800F5E70D4B0022C3F8482100940A230C4A0A
:100D58000C490D48FFF72CFD013424B2642C07D050
:100D680000F08AF9044BD3F8FC3000225A63DEE71E
:100D78000024F5E700080048D002002000100048D1
:100D880014010020CC020020C802002000B585B064
:100D980042F21003ADF80C3001230093022303AA9A
:100DA800BA21034800F06AFE05B05DF804FB00BFF5
:100DB8003403002070B58EB048F22013ADF83430FB
:100DC800AB4E0124009402230DAABE21304600F048
:100DD80055FE32238DF82C3033238DF828300094BB
:100DE80023460BAABE21304600F048FE0094234655
:100DF8000CAABF21304600F0FFFE9DF830309D4D13
:100E08002B60009423460AAABE21304600F036FE25
:100E1800009423460CAABF21304600F0EDFE9DF851
:100E280030306B6035238DF824300094234609AAAE
:100E3800BE21304600F022FE009423460CAABF21B2
:100E4800304600F0D9FE9DF830301A0202F44072A4
:100E580029680A432A609B101B0203F440736968DF
:100E68000B436B60D2102A60DB106B603C238DF85B
:100E780020303D238DF81C300094234608AABE215B
:100E8800304600F0FBFD009423460CAABF213046F3
:100E980000F0B2FE9DF830302B810094234607AA5B
:100EA800BE21304600F0EAFD009423460CAABF217B
:100EB800304600F0A1FE9DF830202B8943EA02233A
:100EC8002B813E238DF818303F238DF81430009481
:100ED800234606AABE21304600F0D0FD00942346E2
:100EE8000CAABF21304600F087FE9DF830306B8198
:100EF8000094234605AABE21304600F0BFFD0094A9
:100F080023460CAABF21304600F076FE9DF830201B
:100F18006B8943EA02231BB26B816A682968521AFB
:100F280007EE902AB8EEE77AB5F908209B1A07EE83
:100F3800903AF8EEE77AC7EE276AC5ED036A3023E0
:100F48008DF8103031238DF80C300094234604AA14
:100F5800BE21304600F092FD009423460CAABF2122
:100F6800304600F049FE9DF830302B74009423463B
:100F780003AABE21304600F081FD009423460CAA46
:100F8800BF21304600F038FE9DF830306B742A7C63
:100F9800E2402A74E3406B7436238DF820303723FF
:100FA8008DF81C300094234608AABE21304600F074
:100FB80065FD009423460CAABF21304600F01CFEB4
:100FC8009DF830306B820094234607AABE21304634
:100FD80000F054FD009423460CAABF21304600F0CF
:100FE8000BFE9DF830206B8A43EA02236B823A237A
:100FF8008DF818303B238DF814300094234606AA48
:10100800BE21304600F03AFD009423460CAABF21C9
:10101800304600F0F1FD9DF83030AB820094234655
:1010280005AABE21304600F029FD009423460CAAEB
:10103800BF21304600F0E0FD9DF83020AB8A43EA3E
:1010480002231BB2AB826A7C297C521A07EE902AD3
:10105800B8EEE77AB5F912209B1A07EE903AF8EE47
:10106800E77AC7EE276AC5ED066A0EB070BD00BF05
:10107800340300202004002000B585B04FF48073AD
:10108800ADF80C3001230093022303AA5221034830
:1010980000F0F4FC05B05DF804FB00BF3403002049
:1010A80000B585B041F21003ADF80C300123009370
:1010B800022303AAD421034800F0E0FC05B05DF840
:1010C80004FB00BF3403002000B585B02223ADF82F
:1010D8000C3001230093022303AA3C21024800F0AC
:1010E800CDFC05B05DF804FB3403002082B00A4B48
:1010F8001A6E42F001021A661A6E02F0010200929C
:10110800009A9A6D42F080529A659B6D03F0805365
:101118000193019B02B070470010024010B588B0DF
:101128000023039304930593069307930268144BD3
:101138009A4201D008B010BD124CE36C43F0020390
:10114800E364E36C03F002030193019B4FF44063F3
:101158000393122304930123059303230693042383
:10116800079303A9084800F0E3F9A36D43F480034B
:10117800A365A36D03F480030293029BDAE700BF23
:1011880000580040001002400004004800B589B033
:101198000023039304930593069307930268144B63
:1011A8009A4202D009B05DF804FB03F5EA339A6D60
:1011B80042F400429A659A6D02F400420192019A43
:1011C800DA6C42F00402DA64DB6C03F00403029385
:1011D800029B4FF4E05303930223049303230693E3
:1011E8000623079303A9034800F0A2F9DAE700BF32
:1011F800003C00400008004802680E4B9A4200D0AC
:10120800704700B583B003F500339A6D42F01002C1
:101218009A659B6D03F010030193019B0022114610
:10122800362000F05DF9362000F06AF903B05DF869
:1012380004FB00BF001000400268094B9A4200D02E
:10124800704782B003F550431A6E42F480321A6632
:101258001B6E03F480330193019B02B0704700BFFB
:101268000040014000B587B0002301930293039327
:101278000493059302680E4B9A4202D007B05DF8BA
:1012880004FB03F55043DA6C42F00202DA64DB6CCB
:1012980003F002030093009B4FF480430193022361
:1012A80002930E23059301A9024800F041F9E5E7EE
:1012B8000040014000040048FEE7FEE7FEE7FEE7C5
:1012C800FEE770477047704708B500F08FF808BD13
:1012D80008B5034B01221A60402000F023FA08BD2C
:1012E8001C04002008B5034B01221A60024802F0D2
:1012F80038FB08BD180400208003002008B5034609
:101308000B4A126842B10A4A106803446A4693427B
:1013180006D8074A136008BD054A06491160F2E776
:1013280002F0E6FF0C2303604FF0FF30F3E700BF45
:101338003C040020900500200F49D1F8883043F480
:101348007003C1F888300D4B1A6842F001021A6028
:10135800002098601A6822F0A85222F410221A601D
:101368004FF48052DA601A6822F480221A60986179
:101378004FF000638B60704700ED00E00010024002
:10138800104B1B780BB90120704710B504464FF479
:101398007A70B0FBF3F30C4A1068B0FBF3F000F07E
:1013A800B3F868B90F2C01D901200AE000222146C0
:1013B8004FF0FF3000F094F8024B5C60002000E032
:1013C800012010BD400100203C01002010B5032081
:1013D80000F074F80020FFF7D3FF10B10124204675
:1013E80010BD0446FFF782FEF9E70000034B1B78A7
:1013F800034A11680B441360704700BF4001002086
:1014080044040020014B1868704700BF44040020C2
:1014180038B50446FFF7F6FF0546B4F1FF3F02D0A2
:10142800044B1B781C44FFF7EDFF401BA042FAD386
:1014380038BD00BF40010020002807DB00F01F0274
:10144800400901239340024A42F82030704700BF08
:1014580000E100E0002808DB0901C9B200F16040A2
:1014680000F5614080F80013704700F00F00090193
:10147800C9B2014B1954704714ED00E000B500F0F3
:101488000700C0F1070CBCF1040F28BF4FF0040C93
:10149800031D062B0FD9C31E4FF0FF3E0EFA0CF0AA
:1014A80021EA000199400EFA03FE22EA0E0241EAFF
:1014B80002005DF804FB0023EEE70000074AD3684A
:1014C80023F4E0631B041B0C000200F4E0600343F8
:1014D80043F0BF6343F40033D360704700ED00E08E
:1014E80010B50446054BD868C0F30220FFF7C6FFC5
:1014F80001462046FFF7AEFF10BD00BF00ED00E03B
:1015080008B5FFF799FF08BD0138B0F1807F0BD20D
:101518004FF0E0235861054AF02182F8231000209B
:10152800986107221A6170470120704700ED00E0BA
:10153800F0B583B000233FE0C56A25EA0C05C4F383
:10154800C0049C402C43C46262E0062400E00024EE
:10155800B4403C430235684E46F82540674C256840
:10156800D44325EA02064F6817F4803F01D042EAC7
:101578000506624D2E606D6804EA05064F6817F48B
:10158800003F01D042EA05065C4D6E60AD6804EA92
:1015980005064F6817F4801F01D042EA0506574D2B
:1015A800AE60ED682C404E6816F4001F01D042EA88
:1015B8000504524AD46001330A6832FA03F400F091
:1015C80098804FF0010C0CFA03FC1CEA0202F2D0DE
:1015D8004C68651E012D03D9112C01D0122C12D193
:1015E80085685E000324B44025EA0405CC68B4404D
:1015F8002C438460456825EA0C054C68C4F3001444
:101608009C402C4344604C6804F00305032D93D0A0
:10161800C5684FEA430E032404FA0EF46FEA040C7B
:1016280025EA04058C6804FA0EF42C43C4604C685F
:10163800022C01D0122C0FD1DD08083550F8257086
:1016480003F00706B6000F24B44027EA04070C6924
:10165800B4403C4340F8254004680CEA040C4C684C
:1016680004F0030404FA0EF444EA0C0404604C6821
:1016780014F0805F9FD0224C256E45F00105256649
:10168800246E04F001040194019C9D08AE1C1A4CC0
:1016980054F8267003F00306B6000F24B44027EA76
:1016A8000407B0F1904F3FF452AF164CA04216D049
:1016B80004F58064A04214D004F58064A04212D0DE
:1016C80004F58064A04210D004F58064A0420ED0D6
:1016D80004F58064A0423FF438AF072438E70124BA
:1016E80036E7022434E7032432E7042430E70524EC
:1016F8002EE703B0F0BD00BF000001400004014028
:1017080000100240000400480369194201D001207A
:101718007047002070470AB1816170478162704745
:101728007047000008B5054B5B69034200D108BD4E
:10173800024B5861FFF7F4FFF9E700BF00040140CE
:1017480003689A6912F0020F01D000229A620368B6
:101758009A6912F0010F03D19A6942F001029A6165
:10176800704730B4029D046860684FEA555C0CF419
:10177800806C4CF07F7C4CF4583C4CF47F7C4CF0F3
:10178800030C20EA0C00C1F3090141EA02411943A4
:1017980029430843606030BC7047F8B505460E46DB
:1017A800174603689B6913F0100F01D10020F8BD9C
:1017B8002B689C6914F0200F17D1B6F1FF3FF7D0C2
:1017C800FFF720FEC01BB04201D8002EF0D16B6C91
:1017D80043F020036B64202385F84130002385F80B
:1017E800423085F840300120E1E71022DA612B68A9
:1017F8002024DC612846FFF7A3FF2A68536823F0FA
:10180800FF7323F48B3323F4FF7323F00103536036
:101818006B6C43F004036B6485F84140002385F842
:10182800423085F840300120C1E770B504460D46C6
:10183800164623689B6913F0020F1DD132462946CC
:101848002046FFF7AAFFC8B9B5F1FF3FF1D0FFF76F
:10185800D9FD801BA84201D8002DEAD1636C43F062
:1018680020036364202384F84130002384F8423045
:1018780084F84030012000E0002070BD0120FCE722
:101888002DE9F0410646884617461D463468A46986
:1018980038EA04040CBF01240024BC4218D1B5F175
:1018A800FF3FF3D0FFF7AEFD069BC01AA84201D850
:1018B800002DEBD1736C43F020037364202386F86A
:1018C8004130002386F8423086F84030012000E09D
:1018D8000020BDE8F08170B505460C4616462B6819
:1018E8009B6913F0200F1AD1324621462846FFF78C
:1018F80054FFB0B9FFF786FD801BA04201D8002C29
:10190800EDD16B6C43F020036B64202385F84130E4
:10191800002385F8423085F84030012070BD002052
:10192800FCE70120FAE770B504460D461646236821
:101938009B6913F0040F3ED1324629462046FFF733
:101948002CFF0146002838D123689A6912F0200F2D
:1019580013D1FFF757FD801BA84201D8002DE6D10F
:10196800636C43F020036364202384F84130002330
:1019780084F840300121084670BD9A6912F0040FBE
:1019880002D0228D002AF6D12022DA6121684B6824
:1019980023F0FF7323F48B3323F4FF7323F0010345
:1019A8004B600023636484F8412084F8423084F853
:1019B80040300121DFE70021DDE70121DBE70028D6
:1019C80059D010B5044690F84130002B43D0242359
:1019D80084F841302268136823F0010313606368B8
:1019E800226823F0706313612268936823F400432C
:1019F8009360E368012B33D0A368226843F404435F
:101A08009360E368022B31D02268536843F0007377
:101A180043F4004353602268D36823F40043D3603F
:101A2800236962691343A169226843EA0123D360E9
:101A3800E369216A22680B4313602268136843F044
:101A48000103136000206064202384F84130206380
:101A580084F8420010BD80F84030FFF75FFBB6E71E
:101A6800A368226843F400439360CAE723684FF4ED
:101A780000625A60C8E70120704700002DE9F0476E
:101A880082B00F460A9E90F84110C9B2202940F052
:101A9800A38004469046994690F84030012B00F008
:101AA8009F804FF0010A80F840A0FFF7ABFC054685
:101AB8000090192352464FF400412046FFF7E0FEFC
:101AC800002840F08F80212384F84130102384F8C7
:101AD800423000236364C4F82480A4F82A90636326
:101AE800638D9BB2FF2B0AD9FF222285414B0093BD
:101AF8004FF0807339462046FFF733FE18E0628DB9
:101B080092B222853B4B00934FF00073D2B2394614
:101B18002046FFF726FE0BE0628D92B22285002355
:101B280000934FF00073D2B239462046FFF719FEF2
:101B3800638D9BB2002B33D02A4631462046FFF7EF
:101B480074FE002850D1626A236812789A62636A28
:101B580001336362638D9BB2013B9BB26385238D26
:101B6800013B9BB22385628D92B2002AE0D0002B04
:101B7800DED100953346002280212046FFF780FE03
:101B8800A0BB638D9BB2FF2BC6D9FF222285002301
:101B980000934FF0807339462046FFF7E2FDC7E710
:101BA8002A4631462046FFF796FE08BB23682022C6
:101BB800DA6121684B6823F0FF7323F48B3323F435
:101BC800FF7323F001034B6084F84120002384F85D
:101BD800423084F8403000E0022002B0BDE8F087CF
:101BE8000220FAE70120F8E70120F6E70120F4E7F0
:101BF8000120F2E7002000802DE9F04782B00F466F
:101C08000A9E90F84110C9B2202940F0A2800446EB
:101C18009046994690F84030012B00F09E804FF096
:101C2800010A80F840A0FFF7EDFB05460090192354
:101C380052464FF400412046FFF722FE002840F0AC
:101C48008E80222384F84130102384F84230002308
:101C58006364C4F82480A4F82A906363638D9BB2FC
:101C6800FF2B0AD9FF222285414B00934FF0807346
:101C780039462046FFF775FD18E0628D92B222853D
:101C88003B4B00934FF00073D2B239462046FFF722
:101C980068FD0BE0628D92B22285002300934FF01D
:101CA8000073D2B239462046FFF75BFD638D9BB2C5
:101CB800002B32D02A4631462046FFF734FE002852
:101CC8004FD123685A6A636A1A70636A0133636280
:101CD800228D013A92B22285638D9BB2013B9BB261
:101CE8006385638D9BB2002BE0D0002ADED100957E
:101CF800334680212046FFF7C3FDA0BB638D9BB20E
:101D0800FF2BC7D9FF222285002300934FF0807351
:101D180039462046FFF725FDC8E72A4631462046C2
:101D2800FFF7D9FD08BB23682022DA6121684B68D8
:101D380023F0FF7323F48B3323F4FF7323F00103A1
:101D48004B6084F84120002384F8423084F8403006
:101D580000E0022002B0BDE8F0870220FAE7012087
:101D6800F8E70120F6E70120F4E70120F2E700BFD9
:101D780000240080034690F84120D2B2202A23D1C3
:101D880090F84020012A21D0012280F84020242206
:101D980080F841200068026822F001020260186899
:101DA800026822F4805202601868026811430160D8
:101DB80019680A6842F001020A60202283F841206B
:101DC800002083F8400070470220704702207047C7
:101DD800034690F84120D2B2202A21D190F8402021
:101DE800012A1FD0012280F84020242280F84120B7
:101DF8000068026822F0010202601868026822F492
:101E0800706242EA0122026019680A6842F001021F
:101E18000A60202283F84120002083F840007047A0
:101E28000220704702207047024B186800F4C06017
:101E3800704700BF00700040B0F5007F0FD01F4B07
:101E48001B6803F4C063B3F5806F34D01B4A136872
:101E580023F4C06343F48063136000207047174B7A
:101E68001B6803F4C063B3F5007F20D0134A1368DE
:101E780023F4C06343F400731360114B1B683222D0
:101E880002FB03F30F4AA2FB03239B0C013300E080
:101E9800013B0A4A526912F4806F01D0002BF7D136
:101EA800064B5B6913F4806F03D100207047002054
:101EB8007047032070470020704700BF0070004043
:101EC8003C01002083DE1B4330B583B00446204B21
:101ED8009B6D13F0805F0BD0FFF7A6FFB0F5007F76
:101EE80017D0802C1FD82DD0702C2DD000211BE0AE
:101EF800174DAB6D43F08053AB65AB6D03F080536A
:101F08000193019BFFF790FFAB6D23F08053AB6506
:101F1800E4E7802C03D9A02C03D9022104E0002196
:101F280002E0012100E003210A4A136823F00703B5
:101F38000B431360136803F007038B4206D100209C
:101F480003B030BD0221EFE70121EDE70120F7E7FB
:101F58000010024000200240284A9368D26802F02C
:101F6800030213F00C030AD00C2B06D0042B1FD04D
:101F7800082B20D00020024610E0012AF6D11F4A83
:101F8800126812F0080F0CD11C4AD2F89420C2F340
:101F980003221B4951F8222043B100200C2B0DD0FD
:101FA8007047164A1268C2F30312F2E71046F5E7C3
:101FB80014480022F2E714480022EFE70F4BDB68D1
:101FC80003F00303022B16D0032B00D10E4A0B4952
:101FD800CB68C3F302130133C868C0F3062002FBC1
:101FE80000F0B0FBF3F0CB68C3F3416301335B004F
:101FF800B0FBF3F0D4E7034AE9E700BF0010024062
:10200800284400080024F40000127A00002800F098
:10201800FC82F0B583B00446964B9D6805F00C052C
:10202800DE6806F00306036813F0100F5AD0E5B116
:102038000C2D18D0A369002B00F0BB808D4A1368C3
:1020480043F001031360FFF7DDF90746894B1B686E
:1020580013F0020F40F09A80FFF7D4F9C01B022852
:10206800F4D90320DCE2012EE4D1824B1B6813F083
:10207800020F03D0A369002B00F0C982206A7D4BB0
:102088001B6813F0080F5BD07A4B1B6803F0F00352
:1020980098425CD8774B1A6842F008021A601A68AE
:1020A80022F0F002216A0A431A605A6822F47F4239
:1020B800E16942EA01225A60002D60D0FFF74CFF27
:1020C8006C4B9B68C3F303136B4AD35C03F01F0389
:1020D800D8406A4B18606A4B1868FFF751F9002816
:1020E80040F09E82236813F0010F00F08180082DD4
:1020F80075D00C2D71D06368B3F5803F00F09780E0
:10210800B3F5A02F00F099805A4B1A6822F4803258
:102118001A601A6822F480221A606368002B00F0A3
:102128009980FFF76FF90746524B1B6813F4003F7D
:102138005ED1FFF767F9C01B6428F5D903206FE269
:102148004C4BD3F894301B0903F0F003A0E7FFF7DA
:10215800BBFE002840F05D82464B1A6842F0080238
:102168001A601A6822F0F002216A0A431A605A6853
:1021780022F47F42E16942EA01225A609EE7206A1E
:10218800FFF7A2FE002899D0012049E2394B1A68CE
:1021980042F008021A601A6822F0F002216A0A4323
:1021A8001A605A6822F47F42E16942EA01225A60C1
:1021B80098E7304A136823F001031360FFF722F908
:1021C80007462C4B1B6813F0020F8BD0FFF71AF948
:1021D800C01B0228F5D9032022E2032E8BD1254B00
:1021E8001B6813F4003F03D06368002B00F01382D0
:1021F800236813F0020F58D0042D45D00C2D41D080
:10220800E368002B77D01B4A136843F4807313608C
:10221800FFF7F8F80646174B1B6813F4806F61D177
:10222800FFF7F0F8801B0228F5D90320F8E1114ADE
:10223800136843F4803313606FE703F18043A3F519
:102248003C331A6842F480221A601A6842F48032D9
:102258001A6062E7FFF7D6F80746064B1B6813F4C7
:10226800003FC5D0FFF7CEF8C01B6428F5D903207E
:10227800D6E100BF00100240584400083C0100208D
:1022880044010020022EBBD1954B1B6813F4806FCC
:1022980003D0E368002B00F0C081914A536823F013
:1022A800F853216943EA01635360236813F0080F68
:1022B8004CD063699BB38A4AD2F8943043F0010347
:1022C800C2F89430FFF79EF80646854BD3F8943051
:1022D80013F0020F3AD1FFF795F8801B0228F4D9C2
:1022E80003209DE17E4A536823F0F853216943EAAD
:1022F80001635360D9E77A4A136823F48073136043
:10230800FFF780F80646764B1B6813F4806FCCD035
:10231800FFF778F8801B0228F5D9032080E1704A7E
:10232800D2F8943023F00103C2F89430FFF76AF82A
:1023380006466B4BD3F8943013F0020F06D0FFF724
:1023480061F8801B0228F4D9032069E1236813F09F
:10235800040F7AD0624B9B6D13F0805F36D1604BCF
:102368009A6D42F080529A659B6D03F080530193F9
:10237800019B01265B4B1B6813F4807F28D0A36860
:10238800012B39D0052B3FD0554BD3F8902022F0A4
:102398000102C3F89020D3F8902022F00402C3F879
:1023A8009020A368002B3DD0FFF72CF807464C4B34
:1023B800D3F8903013F0020F46D1FFF723F8C01B73
:1023C80041F288339842F2D9032029E10026D1E767
:1023D800444A136843F480731360FFF713F8074601
:1023E800404B1B6813F4807FC9D1FFF70BF8C01B63
:1023F8000228F5D9032013E1394AD2F8903043F086
:102408000103C2F89030CCE7354BD3F8902042F066
:102418000402C3F89020D3F8902042F00102C3F8D8
:102428009020BEE7FEF7EEFF07462D4BD3F890301D
:1024380013F0020F08D0FEF7E5FFC01B41F2883306
:102448009842F2D90320EBE06EBBA36A002B00F0A0
:10245800E680022B2DD00C2D00F0E880204B1A6866
:1024680022F080721A601B6813F0205F04D11C4AA6
:10247800D36823F00303D360194AD36823F0887321
:1024880023F48033D360FEF7BDFF0446144B1B686A
:1024980013F0007F00F0B780FEF7B4FF001B02289E
:1024A800F4D90320BCE00E4A936D23F08053936562
:1024B800CBE70B4BDB6803F00301E26A914213D0D0
:1024C8000C2D00F0AF80064B1B6813F0806F40F0B6
:1024D800AB80034B1B6813F0805F31D001209FE075
:1024E800001002400070004003F07002216B0139B7
:1024F800B2EB011FE4D103F4FE42616BB2EB012F92
:10250800DED103F40031A26B073A18BF01229142D1
:10251800D6D103F4C001E26B5208013AB1EB425F35
:10252800CED103F0C063226C5208013AB3EB426F7C
:10253800C6D13F4B1B6813F0007F4AD000206FE0E4
:102548003B4A136823F080731360FEF75BFF054670
:10255800374B1B6813F0007F06D0FEF753FF401B74
:102568000228F5D903205BE0314AD3683149194084
:10257800E36A206B013843EA0013606B43EA0023E7
:10258800E06B4008013843EA4053206C40080138AA
:1025980043EA4063A06B000943EA40431943D16012
:1025A800136843F080731360D36843F08073D3607B
:1025B800FEF728FF04461E4B1B6813F0007F06D168
:1025C800FEF720FF001B0228F5D9032028E0002091
:1025D80026E0174B1A6842F080721A60DA6842F0F7
:1025E8008072DA60FEF70EFF0446114B1B6813F089
:1025F800007F06D1FEF706FF031B022BF5D9032047
:102608000EE000200CE000200AE0012070470120C5
:1026180006E0012004E0012002E0012000E00020A3
:1026280003B0F0BD0120FBE70120F9E70120F7E73F
:10263800001002408C809DF9002800F0988070B549
:102648000C4605464E4B1B6803F007038B420BD222
:102658004B4A136823F007030B431360136803F016
:1026680007038B4240F085802B6813F0010F39D0A7
:102678006B68032B09D0022B26D063BB414A126832
:1026880012F0020F06D1012070E03E4A126812F0E3
:10269800007F70D03B498A6822F0030213438B60A5
:1026A800FEF7B0FE0646374B9B6803F00C036A68DA
:1026B800B3EB820F16D0FEF7A5FE801B41F28833DC
:1026C8009842F0D9032051E02E4A126812F4003FD4
:1026D800E0D101204AE02B4A126812F4806FD9D168
:1026E800012043E02B6813F0020F06D0254A9368B7
:1026F80023F0F003A9680B439360214B1B6803F098
:102708000703A3420AD91E4A136823F00703234389
:102718001360136803F00703A3422ED12B6813F04C
:10272800040F06D0174A936823F4E063E9680B4363
:1027380093602B6813F0080F07D0124A936823F4AC
:102748006053296943EAC1039360FFF705FC0D4B09
:102758009B68C3F303130C4AD35C03F01F03D840F0
:102768000A4B18600A4B1868FEF70AFE70BD012074
:1027780070470120FAE70120F8E70120F6E700BFDB
:102788000020024000100240584400083C0100208C
:1027980044010020F8B504460D46594BDB6813F098
:1027A800030F17D0564BDB6803F00303026893420C
:1027B80001D0012616E0002A00F09F80504BDB680C
:1027C800C3F3021301334268934201D0012609E0A2
:1027D80000261BE00368022B58D0032B5DD0012B89
:1027E80002D001263046F8BD454A126812F0020FA1
:1027F8005FD04348C26822F073026168013943EA36
:1028080001131343C3600026002EEBD13C4A136822
:1028180023F080631360FEF7F5FD0746384B1B680D
:1028280013F0006F05D0FEF7EDFDC31B022BF5D9A1
:102838000326002ED6D1002D3DD131490B6923F452
:102848001F3323F44073A068E2681209520442EA75
:10285800002213430B612A4A136843F08063136014
:10286800FEF7D0FD0546264B1B6813F0006F05D117
:10287800FEF7C8FD401B0228F5D90326002EB1D16A
:102888001F4A1369A1690B431361ABE71C4A12681D
:1028980012F4806FADD10126A4E7194A126812F428
:1028A800003FA6D1164A126812F4802FA1D1012642
:1028B80098E70126A8E7012D0FD01148026922F0F8
:1028C800C06222F4FE42A16863695B08013B5B06B3
:1028D80043EA01231A430261BDE70948026922F469
:1028E800C00222F4FE42A16823695B08013B5B0534
:1028F80043EA01231A430261ADE7012672E700BFEC
:1029080000100240F8B504460D46504BDB6813F042
:10291800030F17D04D4BDB6803F0030302689342A3
:1029280001D0012616E0002A00F08D80474BDB68B5
:10293800C3F3021301334268934201D0012609E030
:1029480000261BE00368022B58D0032B5DD0012B17
:1029580002D001263046F8BD3C4A126812F0020F38
:102968005FD03A48C26822F073026168013943EACD
:1029780001131343C3600026002EEBD1334A1368BA
:1029880023F080531360FEF73DFD07462F4B1B686D
:1029980013F0005F05D0FEF735FDC31B022BF5D9F8
:1029A8000326002ED6D1002D3DD128494B6923F4AA
:1029B8001F3323F44073A068E2681209520442EA04
:1029C800002213434B61214A136843F0805313607C
:1029D800FEF718FD05461D4B1B6813F0005F05D177
:1029E800FEF710FD401B0228F5D90326002EB1D1B1
:1029F800164A536961690B435361ABE7134A12687E
:102A080012F4806FADD10126A4E7104A126812F4BF
:102A1800003FA6D10D4A126812F4802FA1D10126D9
:102A280098E70126A8E70948426922F0C06222F423
:102A3800FE42A16823695B08013B5B0643EA012368
:102A48001A434261BFE7012684E700BF0010024035
:102A58002DE9F04182B00446036813F4006F33D0C7
:102A6800436EB3F5000F1FD00CD823B3B3F5800F16
:102A780005D100212030FFF745FF064620E0012759
:102A88003E4623E0B3F5400F0BD10026604AD2F84A
:102A9800883023F44003616E0B43C2F88830002766
:102AA80014E001273E4611E0594AD36843F48033C5
:102AB800D3600026EAE700210430FFF76BFE0646E4
:102AC800002EE3D0374601E000273E46236813F482
:102AD800805F30D0A36EB3F1007F1FD00DD81BB339
:102AE800B3F1807F06D1002104F12000FFF70AFF2F
:102AF800064605E001273E461DE0B3F1407F0AD1B6
:102B0800C6B9434AD2F8883023F04073A16E0B430C
:102B1800C2F888300FE001273E460CE03C4AD368F3
:102B280043F48033D360EBE70021201DFFF732FE2A
:102B38000646E5E73746236813F4003F71D0344B67
:102B48009B6D13F0805F4ED1314B9A6D42F08052ED
:102B58009A659B6D03F080530193019B4FF0010828
:102B68002C4A136843F480731360FEF74BFC054648
:102B7800284B1B6813F4807F05D1FEF743FC401BEC
:102B88000228F5D90326002E46D1214BD3F89030E0
:102B980013F4407316D0D4F884209A4212D01C4AF9
:102BA800D2F8903023F44073D2F8901041F4803179
:102BB800C2F89010D2F8901021F48031C2F8901029
:102BC800C2F8903013F0010F10D1002E40F0278189
:102BD8000F4AD2F8903023F44073D4F884100B4392
:102BE800C2F8903019E04FF00008B9E7FEF70AFC88
:102BF8000546074BD3F8903013F0020FE5D1FEF7E6
:102C080001FC401B41F288339842F2D90326DCE7E5
:102C180000100240007000403746B8F1000F40F045
:102C28000081236813F0010F08D09D4AD2F888303C
:102C380023F00303A16B0B43C2F88830236813F019
:102C4800020F08D0964AD2F8883023F00C03E16BC3
:102C58000B43C2F88830236813F0040F08D0904A59
:102C6800D2F8883023F03003216C0B43C2F8883047
:102C7800236813F0080F08D0894AD2F8883023F067
:102C8800C003616C0B43C2F88830236813F0100F3F
:102C980008D0834AD2F8883023F44073A16C0B43E0
:102CA800C2F88830236813F0200F08D07C4AD2F885
:102CB800883023F44063E16C0B43C2F88830236802
:102CC80013F4007F08D0764AD2F8883023F44023E2
:102CD800E16D0B43C2F88830236813F4806F08D085
:102CE8006F4AD2F8883023F44013216E0B43C2F8A0
:102CF8008830236813F0400F08D0694AD2F888302A
:102D080023F44053216D0B43C2F88830236813F035
:102D1800800F08D0624AD2F8883023F44043616DAE
:102D28000B43C2F88830236813F4807F08D05C4ACC
:102D3800D2F8883023F44033A16D0B43C2F88830B1
:102D4800236813F4005F0FD0554AD2F8883023F077
:102D58004063E16E0B43C2F88830E36EB3F1006F55
:102D680065D0B3F1806F67D0236813F4002F0FD0BC
:102D78004B4AD2F8883023F04063216F0B43C2F8E6
:102D88008830236FB3F1006F5ED0B3F1806F60D0ED
:102D9800236813F4802F0FD0414AD2F8883023F0EB
:102DA8004063616F0B43C2F88830636FB3F1006F03
:102DB80057D0B3F1806F59D0236813F4804F0FD0E8
:102DC800374AD2F8883023F04053A16F0B43C2F83A
:102DD8008830A36FB3F1805F50D0B3F1005F55D056
:102DE800236813F4004F08D02D4AD2F8883023F016
:102DF8008043E16F0B43C2F88830236813F4803FA7
:102E080009D0274AD2F8883023F00043D4F880103C
:102E18000B43C2F88830384602B0BDE8F081374627
:102E2800FBE61F4A936D23F080539365F9E6D36858
:102E380043F48013D36097E70121201DFFF7AAFC14
:102E4800002891D007468FE7D36843F48013D360F6
:102E58009EE70121201DFFF79DFC002898D007461A
:102E680096E7D36843F48013D360A5E70121201DBA
:102E7800FFF790FC00289FD007469DE70221201D00
:102E8800FFF788FC0028ABD00746A9E7022104F128
:102E98002000FFF737FD0028A2D00746A0E700BFB3
:102EA800001002402DE9F04782B0054688461746D3
:102EB8001E46FEF7A7FA0A9B1B1A03EB0609FEF744
:102EC800A1FA8246284B1B68C3F3CB3309FB03F3F3
:102ED80001932B689C6838EA04040CBF0123002383
:102EE800BB423DD0B6F1FF3FF3D0FEF78BFAA0EB23
:102EF8000A00484507D2019A02B14A46019B013BA4
:102F080001939146E5E72A68536823F0E00353608C
:102F18006B68B3F5827F0BD0AB6AB3F5005F14D052
:102F2800012385F85D30002385F85C30032018E024
:102F3800AB68B3F5004F02D0B3F5806FECD12A68C7
:102F4800136823F040031360E6E72A68136823F444
:102F5800005313602A68136843F400531360DFE7D3
:102F6800002002B0BDE8F0873C0100202DE9F047C1
:102F780082B007460D4616469846FEF743FA0A9B66
:102F88001B1A03EB0809FEF73DFA82462C4B1B6817
:102F980003EB8303C3EBC3031B0D09FB03F301938B
:102FA80002E0B8F1FF3F0CD13B689C6804EA050CCD
:102FB800B44541D0B5F5C06FF3D1002EF1D11B7BDC
:102FC800EFE7FEF71FFAA0EB0A00484507D2019A7F
:102FD80002B14A46019B013B01939146E4E73A68F6
:102FE800536823F0E00353607B68B3F5827F0BD00E
:102FF800BB6AB3F5005F14D0012387F85D30002366
:1030080087F85C30032018E0BB68B3F5004F02D0A6
:10301800B3F5806FECD13A68136823F0400313606E
:10302800E6E73A68136823F4005313603A681368B4
:1030380043F400531360DFE7002002B0BDE8F087D7
:103048003C01002070B582B004460D461646009239
:103058000B4600224FF4C051FFF788FFB0B9009625
:103068002B46002280212046FFF71CFFA8B90096B6
:103078002B4600224FF4C0612046FFF777FF50B17E
:10308800236E43F020032366032004E0236E43F0FD
:1030980020032366032002B070BD236E43F0200393
:1030A80023660320F7E700286AD010B50446436A70
:1030B80033B94368B3F5827F05D00023C36102E0CA
:1030C8000023036143610023A36294F85D30002B61
:1030D8004DD0022384F85D302268136823F0400342
:1030E8001360E368B3F5E06F47D90022B3F5706F5A
:1030F80004D0B3F5E06F01D00023A362636803F442
:103108008273A16801F404410B43216901F00201B3
:103118000B43616901F001010B43A16901F40071DE
:103128000B43E16901F038010B43216A01F080018A
:103138000B43A16A01F4005120680B430360638BC1
:1031480003F00403616A01F010010B43616B01F0A5
:1031580008010B43E16801F470610B4321681A43CD
:103168004A6000202066012384F85D3010BD84F891
:103178005C302046FEF70AF8ABE74FF48052B5E71B
:10318800012070472DE9F04383B01D4690F85C306C
:10319800012B00F0F680044688469146012380F80A
:1031A8005C30FEF72FF9074694F85D60F6B2012E01
:1031B80040F0D480B8F1000F00F0D180B9F1000FD1
:1031C80000F0CD80032384F85D3000232366C4F823
:1031D8003880A4F83C90A4F83E902364A4F84430C6
:1031E800A4F846302365E364A368B3F5004F1ED006
:1031F80023681A6812F0400F03D11A6842F040029F
:103208001A60E368B3F5E06F42D9636813B1B9F1A6
:10321800010F23D1A26B23681288DA60A36B0233F3
:10322800A363E38F9BB2013B9BB2E38716E022685E
:10323800136823F0400313602268136843F4804343
:103248001360D5E7FEF7DEF8C01BA84203D3B5F13B
:10325800FF3F40F08E80002D00F08D80E38F9BB201
:10326800002B66D023689A6812F0020FEAD0A26B8E
:103278001288DA60A36B0233A363B4F83EC01FFA66
:103288008CFC0CF1FF3C1FFA8CFCA4F83EC0E5E76F
:10329800636813B1B9F1010F33D1E38F9BB2012BEE
:1032A8000CD9A26B23681288DA60A36B0233A3637C
:1032B800E38F9BB2023B9BB2E38722E0A26B2368B9
:1032C80012781A73A36B0133A363E38F9BB2013B9C
:1032D8009BB2E38715E0A36B1B781373A36B0133D1
:1032E800A363E38F9BB2013B9BB2E38709E0FEF740
:1032F80089F8C01BA84202D3B5F1FF3F3DD1002D8C
:103308003DD0E38F9BB2A3B12268936813F0020FFC
:10331800EDD0E38F9BB2012BDDD9A36B1B88D36063
:10332800A36B0233A363E38F9BB2023B9BB2E38799
:10333800E7E73A4629462046FFF784FE08B12023EE
:103348002366A36833B901932368DA6801929B68FE
:103358000193019B236E13B9002600E00226012386
:1033680084F85D30002384F85C30304603B0BDE853
:10337800F0830326F3E70326F1E70326EFE70326A6
:10338800EDE70226F1E72DE9F8431F46089D90F87E
:103398005C30012B00F06481044688469146012385
:1033A80080F85C30FEF72EF8064694F85D30DBB204
:1033B8006268012B0AD0B2F5827F40F03881A2689A
:1033C800002A40F03D81042B40F03C81B8F1000F09
:1033D80000F03A81B9F1000F00F03881002F00F0B9
:1033E800378194F85D30DBB2042B02D0052384F8D2
:1033F8005D3000232366C4F84090A4F84670A4F812
:103408004470C4F83880E787A787E3642365E368D6
:10341800B3F5E06F01D8012F23D92268536823F44C
:103428008053536023681A6812F0400F03D11A685A
:1034380042F040021A60E368B3F5E06F58D9636858
:103448000BB1012F0BD1A26B23681288DA60A36B32
:103458000233A363E38F9BB2013B9BB2E38701274F
:1034680031E02268536843F480535360DAE7A26B73
:103478001288DA60A36B0233A363E38F9BB2013B2C
:103488009BB2E387002723689A6812F0010F11D0D6
:10349800B4F8462092B26AB1DA68236C1A80236CB9
:1034A80002332364B4F846309BB2013B9BB2A4F8C4
:1034B80046300127FDF7A6FF831BAB4203D3B5F1C6
:1034C800FF3F40F0C780E38F9BB22BB9B4F846307A
:1034D8009BB2002B00F0A18023689A6812F0020FBB
:1034E800D1D0E28F92B2002ACDD0002FCBD0BEE748
:1034F80063680BB1012F0FD1E38F9BB2012B0DD95C
:10350800A26B23681288DA60A36B0233A363E38F8C
:103518009BB2023B9BB2E387012749E0A26B236879
:1035280012781A73A36B0133A363E38F9BB2013B39
:103538009BB2E387F0E7E28F92B2012A0CD9A26B23
:103548001288DA60A36B0233A363E38F9BB2023B5A
:103558009BB2E38700273DE0A26B12781A73A36B36
:103568000133A363E38F9BB2013B9BB2E387002740
:1035780030E02268536843F48053536001270DE01C
:10358800226C1B7B1370236C01332364B4F8463020
:103598009BB2013B9BB2A4F846300127FDF732FFEE
:1035A800801BA84202D3B5F1FF3F55D1002D55D05D
:1035B800E38F9BB223B9B4F846309BB2002B2CD0D2
:1035C80023689A6812F0020F04D0E28F92B20AB10F
:1035D800002FB0D123689A6812F0010FDED0B4F83A
:1035E800462092B2002AD9D0B4F8462092B2012AD5
:1035F800C6D9DA68236C1A80236C02332364B4F8C2
:1036080046309BB2023B9BB2A4F84630B4F8463031
:103618009BB2012BADD90127C0E732462946204687
:10362800FFF710FD20B120232366012000E00220CF
:10363800012384F85D30002384F85C30BDE8F8830A
:103648000220F5E70220F3E70120F1E70120EFE788
:103658000120EDE70320EBE70320E9E70320E7E794
:103668000220EBE730B4036A23F001030362026A25
:103678004468836923F4803323F073030D681D4382
:1036880022F002028B6813431C4A90420FD002F5C5
:10369800006290420BD002F54062904207D002F5DA
:1036A8008062904203D002F58062904205D123F0F7
:1036B8000803CA681A4322F00403104A90420FD044
:1036C80002F5006290420BD002F54062904207D0AA
:1036D80002F58062904203D002F58062904205D1E3
:1036E80024F440744A6922438C6914434460856118
:1036F8004A684263036230BC704700BF002C014037
:1037080030B4036A23F480730362036A4468C269AD
:1037180022F4803222F073020D68154323F40073FB
:103728008A6843EA0223184A904203D002F50062ED
:10373800904206D123F40063CA6843EA022323F4C3
:103748008063114A90420FD002F5006290420BD07C
:1037580002F54062904207D002F58062904203D0A1
:1037680002F58062904207D124F440524C6942EA43
:1037780004128C6942EA04144460C5614A68C26351
:10378800036230BC704700BF002C014030B4036AAC
:1037980023F480530362036A4468C26922F080728A
:1037A80022F4E6420D6842EA052223F400538D68AC
:1037B80043EA05330F4DA8420FD005F50065A8422E
:1037C8000BD005F54065A84207D005F58065A842ED
:1037D80003D005F58065A84204D124F480444D69DE
:1037E80044EA85144460C2614A680264036230BCDA
:1037F800704700BF002C014030B4036A23F48033C3
:103808000362036A4468426D22F4803222F0700237
:103818000D68154323F400338A6843EA02430F4ACC
:1038280090420FD002F5006290420BD002F5406240
:10383800904207D002F58062904203D002F5806280
:10384800904204D124F480344A6944EA0224446052
:1038580045654A688265036230BC7047002C0140A8
:1038680030B4036A23F480130362036A4468426D28
:1038780022F0807222F4E0420D6842EA052223F425
:1038880000138D6843EA05530F4DA8420FD005F584
:103898000065A8420BD005F54065A84207D005F59C
:1038A8008065A84203D005F58065A84204D124F4B8
:1038B80080244D6944EA8524446042654A68C265AB
:1038C800036230BC704700BF002C014090F83D30C7
:1038D800DBB2012B36D1022380F83D300268D36871
:1038E80043F00103D3600368194A93421CD0B3F133
:1038F800804F19D0A2F59432934215D002F5806218
:10390800934211D002F5806293420DD002F59432B1
:10391800934209D002F54062934205D01A6842F0FA
:1039280001021A600020704799680A4A0A40062A6C
:103938000AD0B2F5803F09D01A6842F001021A6035
:103948000020704701207047002070470020704712
:10395800002C01400700010070477047704770470E
:10396800704710B5044603681A6912F0020F11D0A7
:10397800DA6812F0020F0DD06FF002021A6101230B
:10398800037703689B6913F0030F79D0FFF7E6FF0D
:103998000023237723681A6912F0040F12D0DA681B
:1039A80012F0040F0ED06FF004021A61022323777D
:1039B80023689B6913F4407F68D02046FFF7CEFF49
:1039C8000023237723681A6912F0080F12D0DA68E7
:1039D80012F0080F0ED06FF008021A610423237743
:1039E8002368DB6913F0030F57D02046FFF7B6FFB3
:1039F8000023237723681A6912F0100F12D0DA68AF
:103A080012F0100F0ED06FF010021A6108232377FE
:103A18002368DB6913F4407F46D02046FFF79EFFFA
:103A28000023237723681A6912F0010F03D0DA689C
:103A380012F0010F3FD123681A6912F0800F03D0EA
:103A4800DA6812F0800F3DD123681A6912F4807F7A
:103A580003D0DA6812F0800F3BD123681A6912F09C
:103A6800400F03D0DA6812F0400F39D123681A6981
:103A780012F0200F03D0DA6812F0200F37D110BDF2
:103A8800FFF76BFF2046FFF76AFF81E72046FFF745
:103A980064FF2046FFF763FF92E72046FFF75DFFCC
:103AA8002046FFF75CFFA3E72046FFF756FF2046B6
:103AB800FFF755FFB4E76FF001021A612046FFF7E0
:103AC8004BFFB8E76FF080021A61204600F00DFB4B
:103AD800BAE76FF480721A61204600F007FBBCE772
:103AE8006FF040021A612046FFF73AFFBEE76FF019
:103AF80020021A61204600F0F7FAC0E70368304A4E
:103B0800904212D0B0F1804F0FD0A2F5943290427B
:103B18000BD002F58062904207D002F58062904295
:103B280003D002F59432904203D123F070034A681F
:103B38001343234A90421ED0B0F1804F1BD0A2F508
:103B48009432904217D002F58062904213D002F569
:103B5800806290420FD002F5943290420BD002F569
:103B68004062904207D002F58062904203D002F58D
:103B78008062904203D123F44073CA68134323F050
:103B880080034A69134303608B68C3620B688362CE
:103B98000B4B98420FD003F5006398420BD003F506
:103BA8004063984207D003F58063984203D003F539
:103BB8008063984201D10B69036301234361704715
:103BC800002C014060B310B5044690F83D3013B3A3
:103BD800022384F83D30214651F8040BFFF78EFF8D
:103BE800012384F8483084F83E3084F83F3084F864
:103BF800403084F8413084F8423084F8433084F807
:103C0800443084F8453084F8463084F8473084F8E6
:103C18003D30002010BD80F83C30FDF7EDFAD7E7C5
:103C28000120704760B310B5044690F83D3013B3D7
:103C3800022384F83D30214651F8040BFFF75EFF5C
:103C4800012384F8483084F83E3084F83F3084F803
:103C5800403084F8413084F8423084F8433084F8A6
:103C6800443084F8453084F8463084F8473084F886
:103C78003D30002010BD80F83C30FDF7DDFAD7E775
:103C88000120704730B4036A23F010030362036A0B
:103C98004468826922F0807222F4E6420D6842EAA2
:103CA800052223F020038D6843EA0513174DA84227
:103CB80003D005F50065A84206D123F08003CD683E
:103CC80043EA051323F04003104DA8420FD005F531
:103CD8000065A8420BD005F54065A84207D005F558
:103CE8008065A84203D005F58065A84207D124F471
:103CF800406C4C694CEA840C8C694CEA840444603E
:103D080082614A688263036230BC7047002C0140BC
:103D180038B590F83C30012B00F08C8004460D46F5
:103D2800012380F83C30142A1ED8DFE802F00B1D6E
:103D38001D1D211D1D1D351D1D1D481D1D1D5C1D25
:103D48001D1D6F000068FFF78DFC2268936943F022
:103D5800080393612268936923F00403936122683E
:103D6800936929690B439361002084F83C0038BDAE
:103D78000068FFF787FF2268936943F40063936143
:103D88002268936923F4806393612268936929699F
:103D980043EA01239361E7E70068FFF7B1FC226873
:103DA800D36943F00803D3612268D36923F004037D
:103DB800D3612268D36929690B43D361D4E70068CA
:103DC800FFF7E4FC2268D36943F40063D3612268F7
:103DD800D36923F48063D3612268D369296943EAEC
:103DE8000123D361C0E70068FFF706FD2268536D21
:103DF80043F0080353652268536D23F004035365A9
:103E08002268536D29690B435365ADE70068FFF7D6
:103E180027FD2268536D43F4006353652268536D90
:103E280023F4806353652268536D296943EA0123AB
:103E3800536599E702209AE701F01F014FF0010C42
:103E48000CFA01FC036A23EA0C030362036A8A4042
:103E5800134303627047000010B5044610293CD88C
:103E6800DFE801F0093B3B3B1F3B3B3B263B3B3B31
:103E78002D3B3B3B340090F83E30DBB2013B18BF92
:103E88000123002B40F0928010297DD8DFE801F053
:103E98002C7C7C7C6C7C7C7C707C7C7C747C7C7CCE
:103EA800780090F83F30DBB2013B18BF0123E8E708
:103EB80090F84030DBB2013B18BF0123E1E790F8EE
:103EC8004130DBB2013B18BF0123DAE790F84230FA
:103ED800DBB2013B18BF0123D3E790F84330DBB2D4
:103EE800013B18BF0123CCE7022384F83E300122AE
:103EF8002068FFF7A1FF23682F4A93420FD002F5ED
:103F0800006293420BD002F54062934207D002F55B
:103F18008062934203D002F58062934203D15A6CC7
:103F280042F400425A642368234A934230D0B3F1E2
:103F3800804F2DD0A2F59432934229D002F58062A9
:103F4800934225D002F58062934221D002F5943243
:103F580093421DD002F54062934219D01A6842F08C
:103F680001021A60002022E0022384F83F30BEE7F5
:103F7800022384F84030BAE7022384F84130B6E7D8
:103F8800022384F84230B2E7022384F84330AEE7D4
:103F980099680A4A0A40062A0AD0B2F5803F09D031
:103FA8001A6842F001021A60002000E0012010BDEA
:103FB8000020FCE70020FAE7002C01400700010080
:103FC80090F83C20012A42D030B40346012280F800
:103FD8003C20022280F83D200068426884681D4D1C
:103FE800A84203D005F50065A84203D122F4700267
:103FF8004D682A4322F070020D682A4342601A680D
:104008001448824216D0B2F1804F13D0A0F59430F4
:1040180082420FD000F5806082420BD000F58060AC
:10402800824207D000F59430824203D000F5406008
:10403800824204D124F080048968214391600122DE
:1040480083F83D20002083F83C0030BC70470220F4
:10405800704700BF002C014090F83C30012B3ED047
:1040680010B40246012380F83C30CB6823F4407337
:104078008868034323F480634868034323F4006398
:104088000868034323F480530869034323F4005367
:104098004869034323F48043886A034323F4702365
:1040A800886943EA004310680E4CA04203D004F527
:1040B8000064A0420CD123F470034C6A43EA045311
:1040C80023F08073CC69234323F00073096A0B4300
:1040D8004364002082F83C005DF8044B70470220DE
:1040E800704700BF002C01407047704770470000C0
:1040F800DFF834D0FDF720F9002103E00B4B5B58C3
:10410800435004310A480B4B42189A42F6D30A4AE4
:1041180002E0002342F8043B084B9A42F9D300F02E
:10412800EDF8FCF7BFFDFEE70080012080440008A1
:104138000000002098010020980100209005002030
:10414800FEE70000024B0146186800F02DB800BFDA
:1041580048010020024B0146186800F003B900BF6F
:104168004801002070B50F4E0C463168054611B95C
:1041780000F0AEF830602146284600F0A9F8431C4C
:1041880003D14FF0FF34204670BDC41C24F0030453
:10419800A042F8D0211A284600F09AF80130F2D14E
:1041A800EFE700BF480400202DE9F843CD1C25F0B7
:1041B800030508350C2D38BF0C25002D064601DBFC
:1041C800A94204D90C2333600020BDE8F883DFF846
:1041D800D48000F069F8D8F800301C4644BB294662
:1041E8003046FFF7BFFF431C044658D1D8F80040BB
:1041F8002746002F43D1002C4BD023683946304640
:1042080004EB030900F064F8814542D121686D1A76
:1042180029463046FFF7A6FF01303AD023682B44E1
:104228002360D8F800305A6862BBC8F800700FE005
:104238002268521B20D40B2A17D96119A342256082
:1042480018BF5960636808BFC8F8001062514B6016
:10425800304600F02FF804F10B00231D20F0070072
:10426800C21A1CBF1B1AA350AFE76268A3420CBF57
:10427800C8F800205A60EBE723466468AEE73C467E
:104288007F68B6E71A465B68A342FBD100235360F8
:10429800DEE70C233360304600F00CF894E7056045
:1042A800D6E700BF4C040020014800F04BB800BF1F
:1042B8008C050020014800F046B800BF8C0500209E
:1042C80002440346934200D1704703F8011BF9E703
:1042D80038B5064D0023044608462B60FDF70EF856
:1042E800431C02D12B6803B1236038BD8805002028
:1042F800014B1868704700BF4801002070B50D4D8C
:104308000D4C641BA4100026A64209D10B4D0C4C81
:1043180000F072F8641BA4100026A64205D170BDF7
:1043280055F8043B98470136EEE755F8043B9847A3
:104338000136F2E770440008704400087044000831
:1043480074440008704770470A44914200F1FF33F3
:1043580000D1704710B511F8014B03F8014F914295
:10436800F9D110BD38B50546002941D051F8043CB3
:104378000C1F002BB8BFE418FFF796FF1D4A1368FF
:1043880033B9636014602846BDE83840FFF792BF30
:10439800A34208D9206821188B4201BF19685B68BD
:1043A80009182160EDE71A465B680BB1A342FAD9F8
:1043B80011685018A0420BD120680144501883425C
:1043C8001160E0D118685B68536008441060DAE750
:1043D80002D90C232B60D6E7206821188B4204BF32
:1043E80019685B68636004BF091821605460CAE7F4
:1043F80038BD00BF4C040020F8B500BFF8BC08BCAD
:104408009E467047F8B500BFF8BC08BC9E4670478A
:104418000B000000000000000A000000000000007F
:10442800A0860100400D0300801A060000350C002C
:1044380040420F0080841E0000093D0000127A00EF
:104448000024F40000366E010048E801006CDC022C
:10445800000000000000000001020304060708092C
:08446800000000000102030442
:08447000AD010008000000008E
:084478008901000800000000AA
:1044800053544D33320000000183FCFF00400640CE
:10449000060100FF09000000040E040183FC000077
:1044A000040504000102FD130200000000000001E9
:1044B000000000000000500500010900040E060184
:1044C00002FD00000104FD1AFFFF020100000000D0
:1044D0000001000000000000500500100002000074
:1044E00010010000040E060104FD00000106FD0994
:1044F000FFFFFFFF010101010101010004FF0301B2
:1045000000010000040E040101FD00000101FD0096
:10451000040E0A018AFC0000018AFC0301000D0060
:10452000040E040186FC00000186FC0C0000010062
:104530000710000000000000040E04010FFC000042
:10454000010FFC0201040000040E04010920000018
:104550000109202000000000000000000000000011
:10456000000000000000000000000000000000004B
:10457000000000000000000000000100000000003A
:1045800005500500010000000000030000000000CD
:10459000005005007B22416E676C65223A222B3069
:1045A000303030227D000000040E040106FD0000C2
:1045B0000106FDFFFFFFFFFFFFFF000000093D00B8
:1045C00001000000100000004C010020000000006D
:1045D00050040020B8040020200500200000000046
:1045E00000000000000000000000000000000000CB
:1045F00000000000000000000000000000000000BB
:1046000000000000000000000000000000000000AA
:084610000000000000000000A2
:04000005080040F9B6
:00000001FF
